{"contracts/Lock.sol":{"Lock":{"abi":[{"anonymous":false,"inputs":[{"indexed":false,"internalType":"string","name":"email","type":"string"}],"name":"UserRegistered","type":"event"},{"inputs":[{"internalType":"string","name":"email","type":"string"},{"internalType":"bytes32","name":"newPasswordHash","type":"bytes32"}],"name":"changePassword","outputs":[],"stateMutability":"nonpayable","type":"function"},{"inputs":[{"internalType":"string","name":"email","type":"string"},{"internalType":"bytes32","name":"passwordHash","type":"bytes32"}],"name":"deleteUser","outputs":[],"stateMutability":"nonpayable","type":"function"},{"inputs":[{"internalType":"string","name":"email","type":"string"},{"internalType":"bytes32","name":"passwordHash","type":"bytes32"}],"name":"loginUser","outputs":[{"internalType":"bool","name":"","type":"bool"}],"stateMutability":"view","type":"function"},{"inputs":[{"internalType":"string","name":"email","type":"string"},{"internalType":"bytes32","name":"passwordHash","type":"bytes32"}],"name":"registerUser","outputs":[],"stateMutability":"nonpayable","type":"function"}],"evm":{"bytecode":{"linkReferences":{},"object":"608060405234801561001057600080fd5b50610849806100206000396000f3fe608060405234801561001057600080fd5b506004361061004c5760003560e01c8063054f1b6a14610051578063380eeece1461006d57806368ae55631461009d57806377a10ddf146100b9575b600080fd5b61006b60048036038101906100669190610549565b6100d5565b005b61008760048036038101906100829190610549565b61016d565b60405161009491906105c0565b60405180910390f35b6100b760048036038101906100b29190610549565b6101d1565b005b6100d360048036038101906100ce9190610549565b6102de565b005b6000826040516100e5919061064c565b908152602001604051809103902060010160009054906101000a900460ff16610143576040517f08c379a000000000000000000000000000000000000000000000000000000000815260040161013a906106c0565b60405180910390fd5b80600083604051610154919061064c565b9081526020016040518091039020600001819055505050565b6000808360405161017e919061064c565b908152602001604051809103902060010160009054906101000a900460ff1680156101c95750816000846040516101b5919061064c565b908152602001604051809103902060000154145b905092915050565b6000826040516101e1919061064c565b908152602001604051809103902060010160009054906101000a900460ff1615610240576040517f08c379a00000000000000000000000000000000000000000000000000000000081526004016102379061072c565b60405180910390fd5b604051806040016040528082815260200160011515815250600083604051610268919061064c565b90815260200160405180910390206000820151816000015560208201518160010160006101000a81548160ff0219169083151502179055509050507f270ff4b111e5baa49283562af127cc5ea74e9d6c9efd5465578bd9223d5843f0826040516102d29190610785565b60405180910390a15050565b6000826040516102ee919061064c565b908152602001604051809103902060010160009054906101000a900460ff168015610339575080600083604051610325919061064c565b908152602001604051809103902060000154145b610378576040517f08c379a000000000000000000000000000000000000000000000000000000000815260040161036f906107f3565b60405180910390fd5b600082604051610388919061064c565b90815260200160405180910390206000808201600090556001820160006101000a81549060ff021916905550505050565b6000604051905090565b600080fd5b600080fd5b600080fd5b600080fd5b6000601f19601f8301169050919050565b7f4e487b7100000000000000000000000000000000000000000000000000000000600052604160045260246000fd5b610420826103d7565b810181811067ffffffffffffffff8211171561043f5761043e6103e8565b5b80604052505050565b60006104526103b9565b905061045e8282610417565b919050565b600067ffffffffffffffff82111561047e5761047d6103e8565b5b610487826103d7565b9050602081019050919050565b82818337600083830152505050565b60006104b66104b184610463565b610448565b9050828152602081018484840111156104d2576104d16103d2565b5b6104dd848285610494565b509392505050565b600082601f8301126104fa576104f96103cd565b5b813561050a8482602086016104a3565b91505092915050565b6000819050919050565b61052681610513565b811461053157600080fd5b50565b6000813590506105438161051d565b92915050565b600080604083850312156105605761055f6103c3565b5b600083013567ffffffffffffffff81111561057e5761057d6103c8565b5b61058a858286016104e5565b925050602061059b85828601610534565b9150509250929050565b60008115159050919050565b6105ba816105a5565b82525050565b60006020820190506105d560008301846105b1565b92915050565b600081519050919050565b600081905092915050565b60005b8381101561060f5780820151818401526020810190506105f4565b60008484015250505050565b6000610626826105db565b61063081856105e6565b93506106408185602086016105f1565b80840191505092915050565b6000610658828461061b565b915081905092915050565b600082825260208201905092915050565b7f5573657220646f6573206e6f7420657869737400000000000000000000000000600082015250565b60006106aa601383610663565b91506106b582610674565b602082019050919050565b600060208201905081810360008301526106d98161069d565b9050919050565b7f5573657220616c72656164792072656769737465726564000000000000000000600082015250565b6000610716601783610663565b9150610721826106e0565b602082019050919050565b6000602082019050818103600083015261074581610709565b9050919050565b6000610757826105db565b6107618185610663565b93506107718185602086016105f1565b61077a816103d7565b840191505092915050565b6000602082019050818103600083015261079f818461074c565b905092915050565b7f4e6f7420616c6c6f77656420746f2064656c6574650000000000000000000000600082015250565b60006107dd601583610663565b91506107e8826107a7565b602082019050919050565b6000602082019050818103600083015261080c816107d0565b905091905056fea264697066735822122014b7d7559ccc134a8f11f51a3552e45620860c607c645d038791e27dac40c73364736f6c63430008120033","opcodes":"PUSH1 0x80 PUSH1 0x40 MSTORE CALLVALUE DUP1 ISZERO PUSH2 0x10 JUMPI PUSH1 0x0 DUP1 REVERT JUMPDEST POP PUSH2 0x849 DUP1 PUSH2 0x20 PUSH1 0x0 CODECOPY PUSH1 0x0 RETURN INVALID PUSH1 0x80 PUSH1 0x40 MSTORE CALLVALUE DUP1 ISZERO PUSH2 0x10 JUMPI PUSH1 0x0 DUP1 REVERT JUMPDEST POP PUSH1 0x4 CALLDATASIZE LT PUSH2 0x4C JUMPI PUSH1 0x0 CALLDATALOAD PUSH1 0xE0 SHR DUP1 PUSH4 0x54F1B6A EQ PUSH2 0x51 JUMPI DUP1 PUSH4 0x380EEECE EQ PUSH2 0x6D JUMPI DUP1 PUSH4 0x68AE5563 EQ PUSH2 0x9D JUMPI DUP1 PUSH4 0x77A10DDF EQ PUSH2 0xB9 JUMPI JUMPDEST PUSH1 0x0 DUP1 REVERT JUMPDEST PUSH2 0x6B PUSH1 0x4 DUP1 CALLDATASIZE SUB DUP2 ADD SWAP1 PUSH2 0x66 SWAP2 SWAP1 PUSH2 0x549 JUMP JUMPDEST PUSH2 0xD5 JUMP JUMPDEST STOP JUMPDEST PUSH2 0x87 PUSH1 0x4 DUP1 CALLDATASIZE SUB DUP2 ADD SWAP1 PUSH2 0x82 SWAP2 SWAP1 PUSH2 0x549 JUMP JUMPDEST PUSH2 0x16D JUMP JUMPDEST PUSH1 0x40 MLOAD PUSH2 0x94 SWAP2 SWAP1 PUSH2 0x5C0 JUMP JUMPDEST PUSH1 0x40 MLOAD DUP1 SWAP2 SUB SWAP1 RETURN JUMPDEST PUSH2 0xB7 PUSH1 0x4 DUP1 CALLDATASIZE SUB DUP2 ADD SWAP1 PUSH2 0xB2 SWAP2 SWAP1 PUSH2 0x549 JUMP JUMPDEST PUSH2 0x1D1 JUMP JUMPDEST STOP JUMPDEST PUSH2 0xD3 PUSH1 0x4 DUP1 CALLDATASIZE SUB DUP2 ADD SWAP1 PUSH2 0xCE SWAP2 SWAP1 PUSH2 0x549 JUMP JUMPDEST PUSH2 0x2DE JUMP JUMPDEST STOP JUMPDEST PUSH1 0x0 DUP3 PUSH1 0x40 MLOAD PUSH2 0xE5 SWAP2 SWAP1 PUSH2 0x64C JUMP JUMPDEST SWAP1 DUP2 MSTORE PUSH1 0x20 ADD PUSH1 0x40 MLOAD DUP1 SWAP2 SUB SWAP1 KECCAK256 PUSH1 0x1 ADD PUSH1 0x0 SWAP1 SLOAD SWAP1 PUSH2 0x100 EXP SWAP1 DIV PUSH1 0xFF AND PUSH2 0x143 JUMPI PUSH1 0x40 MLOAD PUSH32 0x8C379A000000000000000000000000000000000000000000000000000000000 DUP2 MSTORE PUSH1 0x4 ADD PUSH2 0x13A SWAP1 PUSH2 0x6C0 JUMP JUMPDEST PUSH1 0x40 MLOAD DUP1 SWAP2 SUB SWAP1 REVERT JUMPDEST DUP1 PUSH1 0x0 DUP4 PUSH1 0x40 MLOAD PUSH2 0x154 SWAP2 SWAP1 PUSH2 0x64C JUMP JUMPDEST SWAP1 DUP2 MSTORE PUSH1 0x20 ADD PUSH1 0x40 MLOAD DUP1 SWAP2 SUB SWAP1 KECCAK256 PUSH1 0x0 ADD DUP2 SWAP1 SSTORE POP POP POP JUMP JUMPDEST PUSH1 0x0 DUP1 DUP4 PUSH1 0x40 MLOAD PUSH2 0x17E SWAP2 SWAP1 PUSH2 0x64C JUMP JUMPDEST SWAP1 DUP2 MSTORE PUSH1 0x20 ADD PUSH1 0x40 MLOAD DUP1 SWAP2 SUB SWAP1 KECCAK256 PUSH1 0x1 ADD PUSH1 0x0 SWAP1 SLOAD SWAP1 PUSH2 0x100 EXP SWAP1 DIV PUSH1 0xFF AND DUP1 ISZERO PUSH2 0x1C9 JUMPI POP DUP2 PUSH1 0x0 DUP5 PUSH1 0x40 MLOAD PUSH2 0x1B5 SWAP2 SWAP1 PUSH2 0x64C JUMP JUMPDEST SWAP1 DUP2 MSTORE PUSH1 0x20 ADD PUSH1 0x40 MLOAD DUP1 SWAP2 SUB SWAP1 KECCAK256 PUSH1 0x0 ADD SLOAD EQ JUMPDEST SWAP1 POP SWAP3 SWAP2 POP POP JUMP JUMPDEST PUSH1 0x0 DUP3 PUSH1 0x40 MLOAD PUSH2 0x1E1 SWAP2 SWAP1 PUSH2 0x64C JUMP JUMPDEST SWAP1 DUP2 MSTORE PUSH1 0x20 ADD PUSH1 0x40 MLOAD DUP1 SWAP2 SUB SWAP1 KECCAK256 PUSH1 0x1 ADD PUSH1 0x0 SWAP1 SLOAD SWAP1 PUSH2 0x100 EXP SWAP1 DIV PUSH1 0xFF AND ISZERO PUSH2 0x240 JUMPI PUSH1 0x40 MLOAD PUSH32 0x8C379A000000000000000000000000000000000000000000000000000000000 DUP2 MSTORE PUSH1 0x4 ADD PUSH2 0x237 SWAP1 PUSH2 0x72C JUMP JUMPDEST PUSH1 0x40 MLOAD DUP1 SWAP2 SUB SWAP1 REVERT JUMPDEST PUSH1 0x40 MLOAD DUP1 PUSH1 0x40 ADD PUSH1 0x40 MSTORE DUP1 DUP3 DUP2 MSTORE PUSH1 0x20 ADD PUSH1 0x1 ISZERO ISZERO DUP2 MSTORE POP PUSH1 0x0 DUP4 PUSH1 0x40 MLOAD PUSH2 0x268 SWAP2 SWAP1 PUSH2 0x64C JUMP JUMPDEST SWAP1 DUP2 MSTORE PUSH1 0x20 ADD PUSH1 0x40 MLOAD DUP1 SWAP2 SUB SWAP1 KECCAK256 PUSH1 0x0 DUP3 ADD MLOAD DUP2 PUSH1 0x0 ADD SSTORE PUSH1 0x20 DUP3 ADD MLOAD DUP2 PUSH1 0x1 ADD PUSH1 0x0 PUSH2 0x100 EXP DUP2 SLOAD DUP2 PUSH1 0xFF MUL NOT AND SWAP1 DUP4 ISZERO ISZERO MUL OR SWAP1 SSTORE POP SWAP1 POP POP PUSH32 0x270FF4B111E5BAA49283562AF127CC5EA74E9D6C9EFD5465578BD9223D5843F0 DUP3 PUSH1 0x40 MLOAD PUSH2 0x2D2 SWAP2 SWAP1 PUSH2 0x785 JUMP JUMPDEST PUSH1 0x40 MLOAD DUP1 SWAP2 SUB SWAP1 LOG1 POP POP JUMP JUMPDEST PUSH1 0x0 DUP3 PUSH1 0x40 MLOAD PUSH2 0x2EE SWAP2 SWAP1 PUSH2 0x64C JUMP JUMPDEST SWAP1 DUP2 MSTORE PUSH1 0x20 ADD PUSH1 0x40 MLOAD DUP1 SWAP2 SUB SWAP1 KECCAK256 PUSH1 0x1 ADD PUSH1 0x0 SWAP1 SLOAD SWAP1 PUSH2 0x100 EXP SWAP1 DIV PUSH1 0xFF AND DUP1 ISZERO PUSH2 0x339 JUMPI POP DUP1 PUSH1 0x0 DUP4 PUSH1 0x40 MLOAD PUSH2 0x325 SWAP2 SWAP1 PUSH2 0x64C JUMP JUMPDEST SWAP1 DUP2 MSTORE PUSH1 0x20 ADD PUSH1 0x40 MLOAD DUP1 SWAP2 SUB SWAP1 KECCAK256 PUSH1 0x0 ADD SLOAD EQ JUMPDEST PUSH2 0x378 JUMPI PUSH1 0x40 MLOAD PUSH32 0x8C379A000000000000000000000000000000000000000000000000000000000 DUP2 MSTORE PUSH1 0x4 ADD PUSH2 0x36F SWAP1 PUSH2 0x7F3 JUMP JUMPDEST PUSH1 0x40 MLOAD DUP1 SWAP2 SUB SWAP1 REVERT JUMPDEST PUSH1 0x0 DUP3 PUSH1 0x40 MLOAD PUSH2 0x388 SWAP2 SWAP1 PUSH2 0x64C JUMP JUMPDEST SWAP1 DUP2 MSTORE PUSH1 0x20 ADD PUSH1 0x40 MLOAD DUP1 SWAP2 SUB SWAP1 KECCAK256 PUSH1 0x0 DUP1 DUP3 ADD PUSH1 0x0 SWAP1 SSTORE PUSH1 0x1 DUP3 ADD PUSH1 0x0 PUSH2 0x100 EXP DUP2 SLOAD SWAP1 PUSH1 0xFF MUL NOT AND SWAP1 SSTORE POP POP POP POP JUMP JUMPDEST PUSH1 0x0 PUSH1 0x40 MLOAD SWAP1 POP SWAP1 JUMP JUMPDEST PUSH1 0x0 DUP1 REVERT JUMPDEST PUSH1 0x0 DUP1 REVERT JUMPDEST PUSH1 0x0 DUP1 REVERT JUMPDEST PUSH1 0x0 DUP1 REVERT JUMPDEST PUSH1 0x0 PUSH1 0x1F NOT PUSH1 0x1F DUP4 ADD AND SWAP1 POP SWAP2 SWAP1 POP JUMP JUMPDEST PUSH32 0x4E487B7100000000000000000000000000000000000000000000000000000000 PUSH1 0x0 MSTORE PUSH1 0x41 PUSH1 0x4 MSTORE PUSH1 0x24 PUSH1 0x0 REVERT JUMPDEST PUSH2 0x420 DUP3 PUSH2 0x3D7 JUMP JUMPDEST DUP2 ADD DUP2 DUP2 LT PUSH8 0xFFFFFFFFFFFFFFFF DUP3 GT OR ISZERO PUSH2 0x43F JUMPI PUSH2 0x43E PUSH2 0x3E8 JUMP JUMPDEST JUMPDEST DUP1 PUSH1 0x40 MSTORE POP POP POP JUMP JUMPDEST PUSH1 0x0 PUSH2 0x452 PUSH2 0x3B9 JUMP JUMPDEST SWAP1 POP PUSH2 0x45E DUP3 DUP3 PUSH2 0x417 JUMP JUMPDEST SWAP2 SWAP1 POP JUMP JUMPDEST PUSH1 0x0 PUSH8 0xFFFFFFFFFFFFFFFF DUP3 GT ISZERO PUSH2 0x47E JUMPI PUSH2 0x47D PUSH2 0x3E8 JUMP JUMPDEST JUMPDEST PUSH2 0x487 DUP3 PUSH2 0x3D7 JUMP JUMPDEST SWAP1 POP PUSH1 0x20 DUP2 ADD SWAP1 POP SWAP2 SWAP1 POP JUMP JUMPDEST DUP3 DUP2 DUP4 CALLDATACOPY PUSH1 0x0 DUP4 DUP4 ADD MSTORE POP POP POP JUMP JUMPDEST PUSH1 0x0 PUSH2 0x4B6 PUSH2 0x4B1 DUP5 PUSH2 0x463 JUMP JUMPDEST PUSH2 0x448 JUMP JUMPDEST SWAP1 POP DUP3 DUP2 MSTORE PUSH1 0x20 DUP2 ADD DUP5 DUP5 DUP5 ADD GT ISZERO PUSH2 0x4D2 JUMPI PUSH2 0x4D1 PUSH2 0x3D2 JUMP JUMPDEST JUMPDEST PUSH2 0x4DD DUP5 DUP3 DUP6 PUSH2 0x494 JUMP JUMPDEST POP SWAP4 SWAP3 POP POP POP JUMP JUMPDEST PUSH1 0x0 DUP3 PUSH1 0x1F DUP4 ADD SLT PUSH2 0x4FA JUMPI PUSH2 0x4F9 PUSH2 0x3CD JUMP JUMPDEST JUMPDEST DUP2 CALLDATALOAD PUSH2 0x50A DUP5 DUP3 PUSH1 0x20 DUP7 ADD PUSH2 0x4A3 JUMP JUMPDEST SWAP2 POP POP SWAP3 SWAP2 POP POP JUMP JUMPDEST PUSH1 0x0 DUP2 SWAP1 POP SWAP2 SWAP1 POP JUMP JUMPDEST PUSH2 0x526 DUP2 PUSH2 0x513 JUMP JUMPDEST DUP2 EQ PUSH2 0x531 JUMPI PUSH1 0x0 DUP1 REVERT JUMPDEST POP JUMP JUMPDEST PUSH1 0x0 DUP2 CALLDATALOAD SWAP1 POP PUSH2 0x543 DUP2 PUSH2 0x51D JUMP JUMPDEST SWAP3 SWAP2 POP POP JUMP JUMPDEST PUSH1 0x0 DUP1 PUSH1 0x40 DUP4 DUP6 SUB SLT ISZERO PUSH2 0x560 JUMPI PUSH2 0x55F PUSH2 0x3C3 JUMP JUMPDEST JUMPDEST PUSH1 0x0 DUP4 ADD CALLDATALOAD PUSH8 0xFFFFFFFFFFFFFFFF DUP2 GT ISZERO PUSH2 0x57E JUMPI PUSH2 0x57D PUSH2 0x3C8 JUMP JUMPDEST JUMPDEST PUSH2 0x58A DUP6 DUP3 DUP7 ADD PUSH2 0x4E5 JUMP JUMPDEST SWAP3 POP POP PUSH1 0x20 PUSH2 0x59B DUP6 DUP3 DUP7 ADD PUSH2 0x534 JUMP JUMPDEST SWAP2 POP POP SWAP3 POP SWAP3 SWAP1 POP JUMP JUMPDEST PUSH1 0x0 DUP2 ISZERO ISZERO SWAP1 POP SWAP2 SWAP1 POP JUMP JUMPDEST PUSH2 0x5BA DUP2 PUSH2 0x5A5 JUMP JUMPDEST DUP3 MSTORE POP POP JUMP JUMPDEST PUSH1 0x0 PUSH1 0x20 DUP3 ADD SWAP1 POP PUSH2 0x5D5 PUSH1 0x0 DUP4 ADD DUP5 PUSH2 0x5B1 JUMP JUMPDEST SWAP3 SWAP2 POP POP JUMP JUMPDEST PUSH1 0x0 DUP2 MLOAD SWAP1 POP SWAP2 SWAP1 POP JUMP JUMPDEST PUSH1 0x0 DUP2 SWAP1 POP SWAP3 SWAP2 POP POP JUMP JUMPDEST PUSH1 0x0 JUMPDEST DUP4 DUP2 LT ISZERO PUSH2 0x60F JUMPI DUP1 DUP3 ADD MLOAD DUP2 DUP5 ADD MSTORE PUSH1 0x20 DUP2 ADD SWAP1 POP PUSH2 0x5F4 JUMP JUMPDEST PUSH1 0x0 DUP5 DUP5 ADD MSTORE POP POP POP POP JUMP JUMPDEST PUSH1 0x0 PUSH2 0x626 DUP3 PUSH2 0x5DB JUMP JUMPDEST PUSH2 0x630 DUP2 DUP6 PUSH2 0x5E6 JUMP JUMPDEST SWAP4 POP PUSH2 0x640 DUP2 DUP6 PUSH1 0x20 DUP7 ADD PUSH2 0x5F1 JUMP JUMPDEST DUP1 DUP5 ADD SWAP2 POP POP SWAP3 SWAP2 POP POP JUMP JUMPDEST PUSH1 0x0 PUSH2 0x658 DUP3 DUP5 PUSH2 0x61B JUMP JUMPDEST SWAP2 POP DUP2 SWAP1 POP SWAP3 SWAP2 POP POP JUMP JUMPDEST PUSH1 0x0 DUP3 DUP3 MSTORE PUSH1 0x20 DUP3 ADD SWAP1 POP SWAP3 SWAP2 POP POP JUMP JUMPDEST PUSH32 0x5573657220646F6573206E6F7420657869737400000000000000000000000000 PUSH1 0x0 DUP3 ADD MSTORE POP JUMP JUMPDEST PUSH1 0x0 PUSH2 0x6AA PUSH1 0x13 DUP4 PUSH2 0x663 JUMP JUMPDEST SWAP2 POP PUSH2 0x6B5 DUP3 PUSH2 0x674 JUMP JUMPDEST PUSH1 0x20 DUP3 ADD SWAP1 POP SWAP2 SWAP1 POP JUMP JUMPDEST PUSH1 0x0 PUSH1 0x20 DUP3 ADD SWAP1 POP DUP2 DUP2 SUB PUSH1 0x0 DUP4 ADD MSTORE PUSH2 0x6D9 DUP2 PUSH2 0x69D JUMP JUMPDEST SWAP1 POP SWAP2 SWAP1 POP JUMP JUMPDEST PUSH32 0x5573657220616C72656164792072656769737465726564000000000000000000 PUSH1 0x0 DUP3 ADD MSTORE POP JUMP JUMPDEST PUSH1 0x0 PUSH2 0x716 PUSH1 0x17 DUP4 PUSH2 0x663 JUMP JUMPDEST SWAP2 POP PUSH2 0x721 DUP3 PUSH2 0x6E0 JUMP JUMPDEST PUSH1 0x20 DUP3 ADD SWAP1 POP SWAP2 SWAP1 POP JUMP JUMPDEST PUSH1 0x0 PUSH1 0x20 DUP3 ADD SWAP1 POP DUP2 DUP2 SUB PUSH1 0x0 DUP4 ADD MSTORE PUSH2 0x745 DUP2 PUSH2 0x709 JUMP JUMPDEST SWAP1 POP SWAP2 SWAP1 POP JUMP JUMPDEST PUSH1 0x0 PUSH2 0x757 DUP3 PUSH2 0x5DB JUMP JUMPDEST PUSH2 0x761 DUP2 DUP6 PUSH2 0x663 JUMP JUMPDEST SWAP4 POP PUSH2 0x771 DUP2 DUP6 PUSH1 0x20 DUP7 ADD PUSH2 0x5F1 JUMP JUMPDEST PUSH2 0x77A DUP2 PUSH2 0x3D7 JUMP JUMPDEST DUP5 ADD SWAP2 POP POP SWAP3 SWAP2 POP POP JUMP JUMPDEST PUSH1 0x0 PUSH1 0x20 DUP3 ADD SWAP1 POP DUP2 DUP2 SUB PUSH1 0x0 DUP4 ADD MSTORE PUSH2 0x79F DUP2 DUP5 PUSH2 0x74C JUMP JUMPDEST SWAP1 POP SWAP3 SWAP2 POP POP JUMP JUMPDEST PUSH32 0x4E6F7420616C6C6F77656420746F2064656C6574650000000000000000000000 PUSH1 0x0 DUP3 ADD MSTORE POP JUMP JUMPDEST PUSH1 0x0 PUSH2 0x7DD PUSH1 0x15 DUP4 PUSH2 0x663 JUMP JUMPDEST SWAP2 POP PUSH2 0x7E8 DUP3 PUSH2 0x7A7 JUMP JUMPDEST PUSH1 0x20 DUP3 ADD SWAP1 POP SWAP2 SWAP1 POP JUMP JUMPDEST PUSH1 0x0 PUSH1 0x20 DUP3 ADD SWAP1 POP DUP2 DUP2 SUB PUSH1 0x0 DUP4 ADD MSTORE PUSH2 0x80C DUP2 PUSH2 0x7D0 JUMP JUMPDEST SWAP1 POP SWAP2 SWAP1 POP JUMP INVALID LOG2 PUSH5 0x6970667358 0x22 SLT KECCAK256 EQ 0xB7 0xD7 SSTORE SWAP13 0xCC SGT 0x4A DUP16 GT CREATE2 BYTE CALLDATALOAD MSTORE 0xE4 JUMP KECCAK256 DUP7 0xC PUSH1 0x7C PUSH5 0x5D038791E2 PUSH30 0xAC40C73364736F6C63430008120033000000000000000000000000000000 "},"methodIdentifiers":{"changePassword(string,bytes32)":"054f1b6a","deleteUser(string,bytes32)":"77a10ddf","loginUser(string,bytes32)":"380eeece","registerUser(string,bytes32)":"68ae5563"}}}}}