{
  "_format": "hh-sol-artifact-1",
  "contractName": "Doc",
  "sourceName": "contracts/Doc.sol",
  "abi": [
    {
      "inputs": [
        {
          "internalType": "string",
          "name": "ref",
          "type": "string"
        },
        {
          "internalType": "address",
          "name": "reciver",
          "type": "address"
        },
        {
          "internalType": "string",
          "name": "ipfs",
          "type": "string"
        },
        {
          "internalType": "string",
          "name": "file",
          "type": "string"
        }
      ],
      "name": "Share",
      "outputs": [],
      "stateMutability": "nonpayable",
      "type": "function"
    },
    {
      "inputs": [
        {
          "internalType": "address",
          "name": "a",
          "type": "address"
        },
        {
          "internalType": "string",
          "name": "_name",
          "type": "string"
        }
      ],
      "name": "attestDocument",
      "outputs": [],
      "stateMutability": "nonpayable",
      "type": "function"
    },
    {
      "inputs": [
        {
          "internalType": "string",
          "name": "_name",
          "type": "string"
        }
      ],
      "name": "getDocumentHash",
      "outputs": [
        {
          "components": [
            {
              "internalType": "string",
              "name": "hash",
              "type": "string"
            },
            {
              "internalType": "string",
              "name": "name",
              "type": "string"
            },
            {
              "internalType": "address[]",
              "name": "status",
              "type": "address[]"
            }
          ],
          "internalType": "struct Doc.Document[]",
          "name": "",
          "type": "tuple[]"
        }
      ],
      "stateMutability": "view",
      "type": "function"
    },
    {
      "inputs": [
        {
          "internalType": "string",
          "name": "uname",
          "type": "string"
        }
      ],
      "name": "getVerifier",
      "outputs": [
        {
          "internalType": "address",
          "name": "",
          "type": "address"
        }
      ],
      "stateMutability": "view",
      "type": "function"
    },
    {
      "inputs": [
        {
          "internalType": "address",
          "name": "verifier",
          "type": "address"
        }
      ],
      "name": "getVerifierName",
      "outputs": [
        {
          "internalType": "string",
          "name": "",
          "type": "string"
        }
      ],
      "stateMutability": "view",
      "type": "function"
    },
    {
      "inputs": [
        {
          "internalType": "string",
          "name": "hash",
          "type": "string"
        }
      ],
      "name": "get_docinfo",
      "outputs": [
        {
          "internalType": "address[]",
          "name": "",
          "type": "address[]"
        }
      ],
      "stateMutability": "view",
      "type": "function"
    },
    {
      "inputs": [],
      "name": "get_trans",
      "outputs": [
        {
          "components": [
            {
              "internalType": "uint256",
              "name": "time",
              "type": "uint256"
            },
            {
              "internalType": "string",
              "name": "ipfsHash",
              "type": "string"
            },
            {
              "internalType": "string",
              "name": "name",
              "type": "string"
            },
            {
              "internalType": "address",
              "name": "sender",
              "type": "address"
            },
            {
              "internalType": "string",
              "name": "verified",
              "type": "string"
            }
          ],
          "internalType": "struct Doc.trans[]",
          "name": "",
          "type": "tuple[]"
        }
      ],
      "stateMutability": "view",
      "type": "function"
    },
    {
      "inputs": [],
      "name": "get_vdocs",
      "outputs": [
        {
          "components": [
            {
              "internalType": "string",
              "name": "ref",
              "type": "string"
            },
            {
              "internalType": "string",
              "name": "ipfsHash",
              "type": "string"
            },
            {
              "internalType": "string",
              "name": "name",
              "type": "string"
            },
            {
              "internalType": "address",
              "name": "sender",
              "type": "address"
            },
            {
              "internalType": "bool",
              "name": "verified",
              "type": "bool"
            }
          ],
          "internalType": "struct Doc.DocumentInfo[]",
          "name": "",
          "type": "tuple[]"
        }
      ],
      "stateMutability": "view",
      "type": "function"
    },
    {
      "inputs": [],
      "name": "getall",
      "outputs": [
        {
          "components": [
            {
              "internalType": "string",
              "name": "hash",
              "type": "string"
            },
            {
              "internalType": "string",
              "name": "name",
              "type": "string"
            },
            {
              "internalType": "address[]",
              "name": "status",
              "type": "address[]"
            }
          ],
          "internalType": "struct Doc.Document[]",
          "name": "",
          "type": "tuple[]"
        }
      ],
      "stateMutability": "view",
      "type": "function"
    },
    {
      "inputs": [
        {
          "internalType": "string",
          "name": "uname",
          "type": "string"
        }
      ],
      "name": "isVerifier",
      "outputs": [
        {
          "internalType": "bool",
          "name": "",
          "type": "bool"
        }
      ],
      "stateMutability": "view",
      "type": "function"
    },
    {
      "inputs": [
        {
          "internalType": "string",
          "name": "_uname",
          "type": "string"
        }
      ],
      "name": "reg_verifier",
      "outputs": [],
      "stateMutability": "nonpayable",
      "type": "function"
    },
    {
      "inputs": [
        {
          "internalType": "string",
          "name": "ref",
          "type": "string"
        }
      ],
      "name": "removeDoc",
      "outputs": [],
      "stateMutability": "nonpayable",
      "type": "function"
    },
    {
      "inputs": [
        {
          "internalType": "string",
          "name": "_hash",
          "type": "string"
        },
        {
          "internalType": "string",
          "name": "_name",
          "type": "string"
        }
      ],
      "name": "store",
      "outputs": [],
      "stateMutability": "nonpayable",
      "type": "function"
    },
    {
      "inputs": [
        {
          "internalType": "address",
          "name": "sender",
          "type": "address"
        },
        {
          "internalType": "string",
          "name": "_name",
          "type": "string"
        },
        {
          "internalType": "string",
          "name": "ipfs",
          "type": "string"
        },
        {
          "internalType": "string",
          "name": "verified",
          "type": "string"
        }
      ],
      "name": "store_trans",
      "outputs": [],
      "stateMutability": "nonpayable",
      "type": "function"
    }
  ],
  "bytecode": "0x608060405234801561001057600080fd5b506132cb806100206000396000f3fe608060405234801561001057600080fd5b50600436106100ea5760003560e01c8063af99abbd1161008c578063cc6cdcef11610066578063cc6cdcef14610249578063ce3f6b5614610279578063d8dc967c14610295578063f641090c146102c5576100ea565b8063af99abbd146101df578063bb6ccd94146101fb578063bc2c4e8c1461022b576100ea565b80637c942510116100c85780637c942510146101575780638baaea571461018757806390974795146101a35780639c7d10de146101c1576100ea565b80633de95544146100ef5780634bb410721461011f5780636f53bd7b1461013b575b600080fd5b61010960048036038101906101049190611f5d565b6102e1565b6040516101169190611feb565b60405180910390f35b61013960048036038101906101349190611f5d565b61032c565b005b61015560048036038101906101509190612032565b610453565b005b610171600480360381019061016c9190611f5d565b610662565b60405161017e9190612116565b60405180910390f35b6101a1600480360381019061019c9190612131565b6106dc565b005b6101ab610a21565b6040516101b891906123ff565b60405180910390f35b6101c9610c6f565b6040516101d69190612576565b60405180910390f35b6101f960048036038101906101f491906126c8565b610f32565b005b61021560048036038101906102109190611f5d565b611091565b60405161022291906123ff565b60405180910390f35b610233611300565b60405161024091906128e2565b60405180910390f35b610263600480360381019061025e9190612904565b6115b2565b604051610270919061297b565b60405180910390f35b610293600480360381019061028e919061299d565b6116ee565b005b6102af60048036038101906102aa919061299d565b6119ef565b6040516102bc9190612a55565b60405180910390f35b6102df60048036038101906102da9190612a77565b611a9b565b005b6000600483836040516102f5929190612b28565b908152602001604051809103902060009054906101000a900473ffffffffffffffffffffffffffffffffffffffff16905092915050565b600073ffffffffffffffffffffffffffffffffffffffff1660048383604051610356929190612b28565b908152602001604051809103902060009054906101000a900473ffffffffffffffffffffffffffffffffffffffff1673ffffffffffffffffffffffffffffffffffffffff160361044f5733600483836040516103b3929190612b28565b908152602001604051809103902060006101000a81548173ffffffffffffffffffffffffffffffffffffffff021916908373ffffffffffffffffffffffffffffffffffffffff1602179055508181600560003373ffffffffffffffffffffffffffffffffffffffff1673ffffffffffffffffffffffffffffffffffffffff168152602001908152602001600020918261044d929190612d58565b505b5050565b600760003373ffffffffffffffffffffffffffffffffffffffff1673ffffffffffffffffffffffffffffffffffffffff1681526020019081526020016000206040518060a0016040528042815260200186868080601f016020809104026020016040519081016040528093929190818152602001838380828437600081840152601f19601f82011690508083019250505050505050815260200188888080601f016020809104026020016040519081016040528093929190818152602001838380828437600081840152601f19601f8201169050808301925050505050505081526020018973ffffffffffffffffffffffffffffffffffffffff16815260200184848080601f016020809104026020016040519081016040528093929190818152602001838380828437600081840152601f19601f8201169050808301925050505050505081525090806001815401808255809150506001900390600052602060002090600502016000909190919091506000820151816000015560208201518160010190816105e39190612e28565b5060408201518160020190816105f99190612e28565b5060608201518160030160006101000a81548173ffffffffffffffffffffffffffffffffffffffff021916908373ffffffffffffffffffffffffffffffffffffffff16021790555060808201518160040190816106569190612e28565b50505050505050505050565b60008073ffffffffffffffffffffffffffffffffffffffff166004848460405161068d929190612b28565b908152602001604051809103902060009054906101000a900473ffffffffffffffffffffffffffffffffffffffff1673ffffffffffffffffffffffffffffffffffffffff161415905092915050565b6000600160008573ffffffffffffffffffffffffffffffffffffffff1673ffffffffffffffffffffffffffffffffffffffff168152602001908152602001600020838360405161072d929190612b28565b908152602001604051809103902090506000818054905011610784576040517f08c379a000000000000000000000000000000000000000000000000000000000815260040161077b90612f6c565b60405180910390fd5b600081600183805490506107989190612fbb565b815481106107a9576107a8612fef565b5b90600052602060002090600302019050600081600201905080339080600181540180825580915050600190039060005260206000200160009091909190916101000a81548173ffffffffffffffffffffffffffffffffffffffff021916908373ffffffffffffffffffffffffffffffffffffffff1602179055506000600260008873ffffffffffffffffffffffffffffffffffffffff1673ffffffffffffffffffffffffffffffffffffffff16815260200190815260200160002090506000816001868054905061087a9190612fbb565b8154811061088b5761088a612fef565b5b90600052602060002090600302019050600081600201905080339080600181540180825580915050600190039060005260206000200160009091909190916101000a81548173ffffffffffffffffffffffffffffffffffffffff021916908373ffffffffffffffffffffffffffffffffffffffff160217905550600082600001805461091690612b7b565b80601f016020809104026020016040519081016040528092919081815260200182805461094290612b7b565b801561098f5780601f106109645761010080835404028352916020019161098f565b820191906000526020600020905b81548152906001019060200180831161097257829003601f168201915b505050505090506006816040516109a6919061304f565b9081526020016040518091039020339080600181540180825580915050600190039060005260206000200160009091909190916101000a81548173ffffffffffffffffffffffffffffffffffffffff021916908373ffffffffffffffffffffffffffffffffffffffff16021790555050505050505050505050565b6060600260003373ffffffffffffffffffffffffffffffffffffffff1673ffffffffffffffffffffffffffffffffffffffff168152602001908152602001600020805480602002602001604051908101604052809291908181526020016000905b82821015610c665783829060005260206000209060030201604051806060016040529081600082018054610ab590612b7b565b80601f0160208091040260200160405190810160405280929190818152602001828054610ae190612b7b565b8015610b2e5780601f10610b0357610100808354040283529160200191610b2e565b820191906000526020600020905b815481529060010190602001808311610b1157829003601f168201915b50505050508152602001600182018054610b4790612b7b565b80601f0160208091040260200160405190810160405280929190818152602001828054610b7390612b7b565b8015610bc05780601f10610b9557610100808354040283529160200191610bc0565b820191906000526020600020905b815481529060010190602001808311610ba357829003601f168201915b5050505050815260200160028201805480602002602001604051908101604052809291908181526020018280548015610c4e57602002820191906000526020600020905b8160009054906101000a900473ffffffffffffffffffffffffffffffffffffffff1673ffffffffffffffffffffffffffffffffffffffff1681526020019060010190808311610c04575b50505050508152505081526020019060010190610a82565b50505050905090565b6060600360003373ffffffffffffffffffffffffffffffffffffffff1673ffffffffffffffffffffffffffffffffffffffff168152602001908152602001600020805480602002602001604051908101604052809291908181526020016000905b82821015610f2957838290600052602060002090600402016040518060a0016040529081600082018054610d0390612b7b565b80601f0160208091040260200160405190810160405280929190818152602001828054610d2f90612b7b565b8015610d7c5780601f10610d5157610100808354040283529160200191610d7c565b820191906000526020600020905b815481529060010190602001808311610d5f57829003601f168201915b50505050508152602001600182018054610d9590612b7b565b80601f0160208091040260200160405190810160405280929190818152602001828054610dc190612b7b565b8015610e0e5780601f10610de357610100808354040283529160200191610e0e565b820191906000526020600020905b815481529060010190602001808311610df157829003601f168201915b50505050508152602001600282018054610e2790612b7b565b80601f0160208091040260200160405190810160405280929190818152602001828054610e5390612b7b565b8015610ea05780601f10610e7557610100808354040283529160200191610ea0565b820191906000526020600020905b815481529060010190602001808311610e8357829003601f168201915b505050505081526020016003820160009054906101000a900473ffffffffffffffffffffffffffffffffffffffff1673ffffffffffffffffffffffffffffffffffffffff1673ffffffffffffffffffffffffffffffffffffffff1681526020016003820160149054906101000a900460ff16151515158152505081526020019060010190610cd0565b50505050905090565b60006040518060a001604052808681526020018481526020018381526020013373ffffffffffffffffffffffffffffffffffffffff168152602001600015158152509050600360008573ffffffffffffffffffffffffffffffffffffffff1673ffffffffffffffffffffffffffffffffffffffff1681526020019081526020016000208190806001815401808255809150506001900390600052602060002090600402016000909190919091506000820151816000019081610ff49190612e28565b50602082015181600101908161100a9190612e28565b5060408201518160020190816110209190612e28565b5060608201518160030160006101000a81548173ffffffffffffffffffffffffffffffffffffffff021916908373ffffffffffffffffffffffffffffffffffffffff16021790555060808201518160030160146101000a81548160ff02191690831515021790555050505050505050565b6060600160003373ffffffffffffffffffffffffffffffffffffffff1673ffffffffffffffffffffffffffffffffffffffff16815260200190815260200160002083836040516110e2929190612b28565b9081526020016040518091039020805480602002602001604051908101604052809291908181526020016000905b828210156112f4578382906000526020600020906003020160405180606001604052908160008201805461114390612b7b565b80601f016020809104026020016040519081016040528092919081815260200182805461116f90612b7b565b80156111bc5780601f10611191576101008083540402835291602001916111bc565b820191906000526020600020905b81548152906001019060200180831161119f57829003601f168201915b505050505081526020016001820180546111d590612b7b565b80601f016020809104026020016040519081016040528092919081815260200182805461120190612b7b565b801561124e5780601f106112235761010080835404028352916020019161124e565b820191906000526020600020905b81548152906001019060200180831161123157829003601f168201915b50505050508152602001600282018054806020026020016040519081016040528092919081815260200182805480156112dc57602002820191906000526020600020905b8160009054906101000a900473ffffffffffffffffffffffffffffffffffffffff1673ffffffffffffffffffffffffffffffffffffffff1681526020019060010190808311611292575b50505050508152505081526020019060010190611110565b50505050905092915050565b6060600760003373ffffffffffffffffffffffffffffffffffffffff1673ffffffffffffffffffffffffffffffffffffffff168152602001908152602001600020805480602002602001604051908101604052809291908181526020016000905b828210156115a957838290600052602060002090600502016040518060a00160405290816000820154815260200160018201805461139e90612b7b565b80601f01602080910402602001604051908101604052809291908181526020018280546113ca90612b7b565b80156114175780601f106113ec57610100808354040283529160200191611417565b820191906000526020600020905b8154815290600101906020018083116113fa57829003601f168201915b5050505050815260200160028201805461143090612b7b565b80601f016020809104026020016040519081016040528092919081815260200182805461145c90612b7b565b80156114a95780601f1061147e576101008083540402835291602001916114a9565b820191906000526020600020905b81548152906001019060200180831161148c57829003601f168201915b505050505081526020016003820160009054906101000a900473ffffffffffffffffffffffffffffffffffffffff1673ffffffffffffffffffffffffffffffffffffffff1673ffffffffffffffffffffffffffffffffffffffff16815260200160048201805461151890612b7b565b80601f016020809104026020016040519081016040528092919081815260200182805461154490612b7b565b80156115915780601f1061156657610100808354040283529160200191611591565b820191906000526020600020905b81548152906001019060200180831161157457829003601f168201915b50505050508152505081526020019060010190611361565b50505050905090565b60606000600560008473ffffffffffffffffffffffffffffffffffffffff1673ffffffffffffffffffffffffffffffffffffffff168152602001908152602001600020805461160090612b7b565b90500361161e576040518060200160405280600081525090506116e9565b600560008373ffffffffffffffffffffffffffffffffffffffff1673ffffffffffffffffffffffffffffffffffffffff168152602001908152602001600020805461166890612b7b565b80601f016020809104026020016040519081016040528092919081815260200182805461169490612b7b565b80156116e15780601f106116b6576101008083540402835291602001916116e1565b820191906000526020600020905b8154815290600101906020018083116116c457829003601f168201915b505050505090505b919050565b6000600360003373ffffffffffffffffffffffffffffffffffffffff1673ffffffffffffffffffffffffffffffffffffffff168152602001908152602001600020905060005b81805490508110156119ea57828051906020012082828154811061175b5761175a612fef565b5b90600052602060002090600402016000016040516117799190613109565b6040518091039020036119d75781818154811061179957611798612fef565b5b9060005260206000209060040201600080820160006117b89190611dfd565b6001820160006117c89190611dfd565b6002820160006117d89190611dfd565b6003820160006101000a81549073ffffffffffffffffffffffffffffffffffffffff02191690556003820160146101000a81549060ff0219169055505081600183805490506118279190612fbb565b8154811061183857611837612fef565b5b906000526020600020906004020182828154811061185957611858612fef565b5b90600052602060002090600402016000820181600001908161187b9190613136565b50600182018160010190816118909190613136565b50600282018160020190816118a59190613136565b506003820160009054906101000a900473ffffffffffffffffffffffffffffffffffffffff168160030160006101000a81548173ffffffffffffffffffffffffffffffffffffffff021916908373ffffffffffffffffffffffffffffffffffffffff1602179055506003820160149054906101000a900460ff168160030160146101000a81548160ff0219169083151502179055509050508180548061194e5761194d61321e565b5b6001900381819060005260206000209060040201600080820160006119739190611dfd565b6001820160006119839190611dfd565b6002820160006119939190611dfd565b6003820160006101000a81549073ffffffffffffffffffffffffffffffffffffffff02191690556003820160146101000a81549060ff0219169055505090556119ea565b80806119e29061324d565b915050611734565b505050565b6060600682604051611a01919061304f565b9081526020016040518091039020805480602002602001604051908101604052809291908181526020018280548015611a8f57602002820191906000526020600020905b8160009054906101000a900473ffffffffffffffffffffffffffffffffffffffff1673ffffffffffffffffffffffffffffffffffffffff1681526020019060010190808311611a45575b50505050509050919050565b600160003373ffffffffffffffffffffffffffffffffffffffff1673ffffffffffffffffffffffffffffffffffffffff1681526020019081526020016000208282604051611aea929190612b28565b9081526020016040518091039020604051806060016040528086868080601f016020809104026020016040519081016040528093929190818152602001838380828437600081840152601f19601f82011690508083019250505050505050815260200184848080601f016020809104026020016040519081016040528093929190818152602001838380828437600081840152601f19601f820116905080830192505050505050508152602001600067ffffffffffffffff811115611bb257611bb161259d565b5b604051908082528060200260200182016040528015611be05781602001602082028036833780820191505090505b5081525090806001815401808255809150506001900390600052602060002090600302016000909190919091506000820151816000019081611c229190612e28565b506020820151816001019081611c389190612e28565b506040820151816002019080519060200190611c55929190611e3d565b505050600260003373ffffffffffffffffffffffffffffffffffffffff1673ffffffffffffffffffffffffffffffffffffffff168152602001908152602001600020604051806060016040528086868080601f016020809104026020016040519081016040528093929190818152602001838380828437600081840152601f19601f82011690508083019250505050505050815260200184848080601f016020809104026020016040519081016040528093929190818152602001838380828437600081840152601f19601f820116905080830192505050505050508152602001600067ffffffffffffffff811115611d5157611d5061259d565b5b604051908082528060200260200182016040528015611d7f5781602001602082028036833780820191505090505b5081525090806001815401808255809150506001900390600052602060002090600302016000909190919091506000820151816000019081611dc19190612e28565b506020820151816001019081611dd79190612e28565b506040820151816002019080519060200190611df4929190611e3d565b50505050505050565b508054611e0990612b7b565b6000825580601f10611e1b5750611e3a565b601f016020900490600052602060002090810190611e399190611ec7565b5b50565b828054828255906000526020600020908101928215611eb6579160200282015b82811115611eb55782518260006101000a81548173ffffffffffffffffffffffffffffffffffffffff021916908373ffffffffffffffffffffffffffffffffffffffff16021790555091602001919060010190611e5d565b5b509050611ec39190611ec7565b5090565b5b80821115611ee0576000816000905550600101611ec8565b5090565b6000604051905090565b600080fd5b600080fd5b600080fd5b600080fd5b600080fd5b60008083601f840112611f1d57611f1c611ef8565b5b8235905067ffffffffffffffff811115611f3a57611f39611efd565b5b602083019150836001820283011115611f5657611f55611f02565b5b9250929050565b60008060208385031215611f7457611f73611eee565b5b600083013567ffffffffffffffff811115611f9257611f91611ef3565b5b611f9e85828601611f07565b92509250509250929050565b600073ffffffffffffffffffffffffffffffffffffffff82169050919050565b6000611fd582611faa565b9050919050565b611fe581611fca565b82525050565b60006020820190506120006000830184611fdc565b92915050565b61200f81611fca565b811461201a57600080fd5b50565b60008135905061202c81612006565b92915050565b60008060008060008060006080888a03121561205157612050611eee565b5b600061205f8a828b0161201d565b975050602088013567ffffffffffffffff8111156120805761207f611ef3565b5b61208c8a828b01611f07565b9650965050604088013567ffffffffffffffff8111156120af576120ae611ef3565b5b6120bb8a828b01611f07565b9450945050606088013567ffffffffffffffff8111156120de576120dd611ef3565b5b6120ea8a828b01611f07565b925092505092959891949750929550565b60008115159050919050565b612110816120fb565b82525050565b600060208201905061212b6000830184612107565b92915050565b60008060006040848603121561214a57612149611eee565b5b60006121588682870161201d565b935050602084013567ffffffffffffffff81111561217957612178611ef3565b5b61218586828701611f07565b92509250509250925092565b600081519050919050565b600082825260208201905092915050565b6000819050602082019050919050565b600081519050919050565b600082825260208201905092915050565b60005b838110156121f75780820151818401526020810190506121dc565b60008484015250505050565b6000601f19601f8301169050919050565b600061221f826121bd565b61222981856121c8565b93506122398185602086016121d9565b61224281612203565b840191505092915050565b600081519050919050565b600082825260208201905092915050565b6000819050602082019050919050565b61228281611fca565b82525050565b60006122948383612279565b60208301905092915050565b6000602082019050919050565b60006122b88261224d565b6122c28185612258565b93506122cd83612269565b8060005b838110156122fe5781516122e58882612288565b97506122f0836122a0565b9250506001810190506122d1565b5085935050505092915050565b600060608301600083015184820360008601526123288282612214565b915050602083015184820360208601526123428282612214565b9150506040830151848203604086015261235c82826122ad565b9150508091505092915050565b6000612375838361230b565b905092915050565b6000602082019050919050565b600061239582612191565b61239f818561219c565b9350836020820285016123b1856121ad565b8060005b858110156123ed57848403895281516123ce8582612369565b94506123d98361237d565b925060208a019950506001810190506123b5565b50829750879550505050505092915050565b60006020820190508181036000830152612419818461238a565b905092915050565b600081519050919050565b600082825260208201905092915050565b6000819050602082019050919050565b612456816120fb565b82525050565b600060a08301600083015184820360008601526124798282612214565b915050602083015184820360208601526124938282612214565b915050604083015184820360408601526124ad8282612214565b91505060608301516124c26060860182612279565b5060808301516124d5608086018261244d565b508091505092915050565b60006124ec838361245c565b905092915050565b6000602082019050919050565b600061250c82612421565b612516818561242c565b9350836020820285016125288561243d565b8060005b85811015612564578484038952815161254585826124e0565b9450612550836124f4565b925060208a0199505060018101905061252c565b50829750879550505050505092915050565b600060208201905081810360008301526125908184612501565b905092915050565b600080fd5b7f4e487b7100000000000000000000000000000000000000000000000000000000600052604160045260246000fd5b6125d582612203565b810181811067ffffffffffffffff821117156125f4576125f361259d565b5b80604052505050565b6000612607611ee4565b905061261382826125cc565b919050565b600067ffffffffffffffff8211156126335761263261259d565b5b61263c82612203565b9050602081019050919050565b82818337600083830152505050565b600061266b61266684612618565b6125fd565b90508281526020810184848401111561268757612686612598565b5b612692848285612649565b509392505050565b600082601f8301126126af576126ae611ef8565b5b81356126bf848260208601612658565b91505092915050565b600080600080608085870312156126e2576126e1611eee565b5b600085013567ffffffffffffffff811115612700576126ff611ef3565b5b61270c8782880161269a565b945050602061271d8782880161201d565b935050604085013567ffffffffffffffff81111561273e5761273d611ef3565b5b61274a8782880161269a565b925050606085013567ffffffffffffffff81111561276b5761276a611ef3565b5b6127778782880161269a565b91505092959194509250565b600081519050919050565b600082825260208201905092915050565b6000819050602082019050919050565b6000819050919050565b6127c2816127af565b82525050565b600060a0830160008301516127e060008601826127b9565b50602083015184820360208601526127f88282612214565b915050604083015184820360408601526128128282612214565b91505060608301516128276060860182612279565b506080830151848203608086015261283f8282612214565b9150508091505092915050565b600061285883836127c8565b905092915050565b6000602082019050919050565b600061287882612783565b612882818561278e565b9350836020820285016128948561279f565b8060005b858110156128d057848403895281516128b1858261284c565b94506128bc83612860565b925060208a01995050600181019050612898565b50829750879550505050505092915050565b600060208201905081810360008301526128fc818461286d565b905092915050565b60006020828403121561291a57612919611eee565b5b60006129288482850161201d565b91505092915050565b600082825260208201905092915050565b600061294d826121bd565b6129578185612931565b93506129678185602086016121d9565b61297081612203565b840191505092915050565b600060208201905081810360008301526129958184612942565b905092915050565b6000602082840312156129b3576129b2611eee565b5b600082013567ffffffffffffffff8111156129d1576129d0611ef3565b5b6129dd8482850161269a565b91505092915050565b600082825260208201905092915050565b6000612a028261224d565b612a0c81856129e6565b9350612a1783612269565b8060005b83811015612a48578151612a2f8882612288565b9750612a3a836122a0565b925050600181019050612a1b565b5085935050505092915050565b60006020820190508181036000830152612a6f81846129f7565b905092915050565b60008060008060408587031215612a9157612a90611eee565b5b600085013567ffffffffffffffff811115612aaf57612aae611ef3565b5b612abb87828801611f07565b9450945050602085013567ffffffffffffffff811115612ade57612add611ef3565b5b612aea87828801611f07565b925092505092959194509250565b600081905092915050565b6000612b0f8385612af8565b9350612b1c838584612649565b82840190509392505050565b6000612b35828486612b03565b91508190509392505050565b600082905092915050565b7f4e487b7100000000000000000000000000000000000000000000000000000000600052602260045260246000fd5b60006002820490506001821680612b9357607f821691505b602082108103612ba657612ba5612b4c565b5b50919050565b60008190508160005260206000209050919050565b60006020601f8301049050919050565b600082821b905092915050565b600060088302612c0e7fffffffffffffffffffffffffffffffffffffffffffffffffffffffffffffffff82612bd1565b612c188683612bd1565b95508019841693508086168417925050509392505050565b6000819050919050565b6000612c55612c50612c4b846127af565b612c30565b6127af565b9050919050565b6000819050919050565b612c6f83612c3a565b612c83612c7b82612c5c565b848454612bde565b825550505050565b600090565b612c98612c8b565b612ca3818484612c66565b505050565b5b81811015612cc757612cbc600082612c90565b600181019050612ca9565b5050565b601f821115612d0c57612cdd81612bac565b612ce684612bc1565b81016020851015612cf5578190505b612d09612d0185612bc1565b830182612ca8565b50505b505050565b600082821c905092915050565b6000612d2f60001984600802612d11565b1980831691505092915050565b6000612d488383612d1e565b9150826002028217905092915050565b612d628383612b41565b67ffffffffffffffff811115612d7b57612d7a61259d565b5b612d858254612b7b565b612d90828285612ccb565b6000601f831160018114612dbf5760008415612dad578287013590505b612db78582612d3c565b865550612e1f565b601f198416612dcd86612bac565b60005b82811015612df557848901358255600182019150602085019450602081019050612dd0565b86831015612e125784890135612e0e601f891682612d1e565b8355505b6001600288020188555050505b50505050505050565b612e31826121bd565b67ffffffffffffffff811115612e4a57612e4961259d565b5b612e548254612b7b565b612e5f828285612ccb565b600060209050601f831160018114612e925760008415612e80578287015190505b612e8a8582612d3c565b865550612ef2565b601f198416612ea086612bac565b60005b82811015612ec857848901518255600182019150602085019450602081019050612ea3565b86831015612ee55784890151612ee1601f891682612d1e565b8355505b6001600288020188555050505b505050505050565b7f4e6f20646f63756d656e747320666f756e6420666f722074686520676976656e60008201527f206e616d652e0000000000000000000000000000000000000000000000000000602082015250565b6000612f56602683612931565b9150612f6182612efa565b604082019050919050565b60006020820190508181036000830152612f8581612f49565b9050919050565b7f4e487b7100000000000000000000000000000000000000000000000000000000600052601160045260246000fd5b6000612fc6826127af565b9150612fd1836127af565b9250828203905081811115612fe957612fe8612f8c565b5b92915050565b7f4e487b7100000000000000000000000000000000000000000000000000000000600052603260045260246000fd5b6000613029826121bd565b6130338185612af8565b93506130438185602086016121d9565b80840191505092915050565b600061305b828461301e565b915081905092915050565b600081905092915050565b60008190508160005260206000209050919050565b6000815461309381612b7b565b61309d8186613066565b945060018216600081146130b857600181146130cd57613100565b60ff1983168652811515820286019350613100565b6130d685613071565b60005b838110156130f8578154818901526001820191506020810190506130d9565b838801955050505b50505092915050565b60006131158284613086565b915081905092915050565b60008154905061312f81612b7b565b9050919050565b81810361314457505061321c565b61314d82613120565b67ffffffffffffffff8111156131665761316561259d565b5b6131708254612b7b565b61317b828285612ccb565b6000601f8311600181146131aa5760008415613198578287015490505b6131a28582612d3c565b865550613215565b601f1984166131b887612bac565b96506131c386612bac565b60005b828110156131eb578489015482556001820191506001850194506020810190506131c6565b868310156132085784890154613204601f891682612d1e565b8355505b6001600288020188555050505b5050505050505b565b7f4e487b7100000000000000000000000000000000000000000000000000000000600052603160045260246000fd5b6000613258826127af565b91507fffffffffffffffffffffffffffffffffffffffffffffffffffffffffffffffff820361328a57613289612f8c565b5b60018201905091905056fea2646970667358221220fd235dea14266e7b7f192c77f2a1ebafd7683a6fcba724f69a2d30869f9e310464736f6c63430008120033",
  "linkReferences": {},
  "deployedLinkReferences": {}
}